:020000040800F2
:10000000E8060020B9010008071A0008B518000822
:10001000051A0008210F0008C91C00080000000094
:10002000000000000000000000000000C31A0008EB
:10003000230F000800000000C11A0008C51A0008BC
:10004000D3010008D3010008D3010008D301000840
:10005000D3010008D3010008D3010008D301000830
:10006000D3010008D3010008D3010008D301000820
:10007000D3010008D3010008D3010008D301000810
:10008000D3010008D3010008D3010008D301000800
:10009000D3010008D3010008D3010008D3010008F0
:1000A000D3010008D3010008D3010008D3010008E0
:1000B000D3010008D3010008D3010008D3010008D0
:1000C000D3010008D3010008D3010008D3010008C0
:1000D000D3010008D3010008D3010008D3010008B0
:1000E000D3010008D3010008D301000800F002F892
:1000F00000F052F80AA090E8000C82448344AAF170
:100100000107DA4501D100F047F8AFF2090EBAE86D
:100110000F0013F0010F18BFFB1A43F0010318473B
:100120006C2000008C200000103A24BF78C878C1F1
:10013000FAD8520724BF30C830C144BF04680C60ED
:10014000704700000023002400250026103A28BF35
:1001500078C1FBD8520728BF30C148BF0B60704739
:10016000642900F01781752900F01481732900F0CB
:10017000A483002070471FB59DE8030000F0D6FA65
:1001800000F06AFE04000020002101F0D3FF401CB3
:1001900060601FBD10B510BD00F0F4FD1146FFF703
:1001A000EAFF01F0FFFD00F01BFE03B4FFF7F2FFD2
:1001B00003BC00F04BFE0000094880470948004797
:1001C000FEE7FEE7FEE7FEE7FEE7FEE7FEE7FEE707
:1001D000FEE7FEE704480549054A064B7047000064
:1001E000191B0008ED000008E8000020E8060020C8
:1001F000E8020020E802002070B5064600F07AFA16
:10020000056806F10B0020F00704B4429CBF0020F3
:1002100070BD2B466A68BAB11068A04210D304F1D1
:10022000080188423CBF5068586007D351681019D4
:1002300041601168091B016058601460101D70BD99
:1002400013465268002AE7D12146284600F05AFAA0
:100250000028DED170BD70B50446051F00F04AFAD3
:100260000068002C14BF446870BD002C18BFAC425D
:100270003CBF20466468F8D301680A18AA4218BF38
:10028000456003D12A680546114401602868411978
:10029000A1421CBF6C6070BD616869602168084440
:1002A000286070BD0FB41CB50C0007AA009001D0E7
:1002B0002044401E074B7B4469460190069800F09D
:1002C000CAFA002C03D06946002000F0D7FA1CBC03
:1002D0005DF814FBCD0500002DE9F0410E46044603
:1002E000002020622046E168884730B3252805D0E9
:1002F000D4E901219047206A401CF2E7E1682046DA
:1003000000278847050018D0A5F14100192802D818
:1003100020354FF400673246294620462760FFF714
:100320001FFF40B1012804D0F61D26F0070608364D
:10033000D8E7361DD6E72846DAE7206ABDE8F0811F
:1003400070B50C460546012A05D02878800600D5F0
:10035000EA69002302E0012305E05B1C934202D21C
:10036000E05C0028F9D1A869E618C01AA861286ADB
:10037000184428622846AFF3008004E0D5E9012143
:1003800014F8010B9047B442F8D32846AFF300802D
:1003900070BD00002DE9F041064600241068752963
:1003A000314616A510D0AFF30080002802DA404293
:1003B00013A507E031688A0701D512A502E04907B5
:1003C00004D511A5012401E0AFF3008000210A2229
:1003D00006F1240709E0B0FBF2FCB0FBF2F302FBEC
:1003E0001C00303078541846491C0028F3D12346AD
:1003F0002A463046BDE8F04100F0CEB900000000CA
:100400002D0000002B000000200000000FB400B5FC
:100410008DB010A9099000910B904FF0FF300A9019
:1004200000200C90064878440690064878446A46B6
:1004300007900F9909A800F059FA0DB05DF814FB68
:10044000E3040000FB0400002DE9FF5F1D464FF0B0
:10045000FF3B91464FF000085F46D5E90146A96988
:1004600001987F1C8847296A824688470028F6D170
:10047000BAF1FF3F0CD0002E24F4C06419DD6006F1
:1004800014D5BAF12B0F09D0BAF12D0F0ED103E01C
:10049000584604B0BDE8F09F44F48064A96901980F
:1004A0007F1C8847761E8246002E02DDBAF1300F8F
:1004B00003D0B9F1000F26D032E0A969761E019869
:1004C0007F1C44F400748847002E824605DDBAF193
:1004D000780F06D0BAF1580F03D0B9F1000F10D041
:1004E0001EE0B9F1000F02D0B9F1100F18D1A969BF
:1004F000761E01987F1C24F40074884782461020E1
:1005000002E0082000E00A20814609E0A96908FB12
:100510000908761E01987F1C44F4007488478246BF
:10052000002E05DD4946504600F0CBF90028EDDAF3
:10053000E96901988847A00502D46FF00100A8E797
:10054000E00725D1600613D5600502D5C8F100008B
:1005500000E0404629680A1D2A600968220501D585
:10056000087015E0220701D5088011E008600FE04F
:100570002868011D29600068210502D580F80080E7
:1005800006E0210702D5A0F8008001E0C0F8008055
:1005900038467EE710B5431C02E010F8011B71B12C
:1005A0008107FAD14FF0013202C88C1A8C4314EA49
:1005B000C211F9D0C01A0A0603D0C01E10BDC01A5D
:1005C00010BD0A0401D0801E10BD0902FCD0401EDF
:1005D00010BD032A40F2308010F0030C00F01580AB
:1005E00011F8013BBCF1020F624498BF11F801CB36
:1005F00000F8013B38BF11F8013BA2F1040298BF9B
:1006000000F801CB38BF00F8013B11F0030300F004
:100610009D81083AC0F0088051F8043B083A51F82F
:1006200004CBA0E80810F5E7121D5CBF51F8043BAD
:1006300040F8043BAFF30080D20724BF11F8013B20
:1006400011F801CB48BF11F8012B24BF00F8013B82
:1006500000F801CB48BF00F8012B70474FF00002B3
:100660000429C0F0128010F0030C00F01B80CCF1C4
:10067000040CBCF1020F18BF00F8012BA8BF20F832
:10068000022BA1EB0C0100F00DB85FEAC17C24BF86
:1006900000F8012B00F8012B48BF00F8012B704730
:1006A0004FF0000200B5134694469646203922BF0B
:1006B000A0E80C50A0E80C50B1F12001BFF4F7AF56
:1006C000090728BFA0E80C5048BF0CC05DF804EB38
:1006D000890028BF40F8042B08BF704748BF20F8A6
:1006E000022B11F0804F18BF00F8012B70477047A4
:1006F00070477047004870478C0000207047704773
:100700007047704738B504460A4600206946AFF383
:100710000080002808BF38BD02460099204600F03E
:100720004BF9012038BD012000F024BBF8B5AFF330
:100730000080054600200C46102000BF0646A81980
:10074000A0420DD9324669460020AFF30080070071
:1007500008BF00F00FFB0098A04218BF0546C4195F
:10076000FFF7C8FF05600746F01D20F00700461997
:10077000284600F00AF8B44208BFF8BDA21B314673
:100780003868BDE8F84000F017B900210160C0E901
:1007900001107047102070472DE9F0470D4699462B
:1007A0009246044600F124080168880604D5E069F1
:1007B00021F01001216000E00120A84201DD471B6B
:1007C00000E00027A1697A1902EB0900081AA0616C
:1007D0002078C00602D42046AFF30080002608E04F
:1007E000D4E901211AF806009047206A401C761CC3
:1007F00020624E45F4DB2078C0060AD52046AFF3D0
:10080000008006E0D4E9012130209047206A401C96
:100810002062381EA7F10107F4DC07E0D4E90121CA
:1008200018F805009047206A401C2062281EA5F198
:100830000105F3DC2046AFF300802078000602D5E6
:100840000220BDE8F0870120FBE7000001694A1C97
:1008500002610878704700B58FB0CDE90131002101
:10086000059105497944CDE9031011466846FFF723
:1008700033FD0FB000BD0000E5FFFFFF0A6802F87E
:10088000010B0A607047D1E900239A4202D2531C3F
:100890000B601070704710B5436913B1AFF300805F
:1008A00001E0FFF74DFD012010BD127800F1240199
:1008B0000A7000224A700122EDE711684FF0FF3202
:1008C000E9E73A2800D2303820F02002412A01D34B
:1008D000A2F13700884201D34FF0FF30704700008B
:1008E000026811441378016018467047D1600549C9
:1008F0007944516104497944116200211161114622
:1009000000F07EB8EDFFFFFFF3000000426842B147
:10091000016811F8013B23B1521EC0E900121846CC
:1009200070470121C160881E704742685AB1C36890
:10093000016843B983688B4205D0491E521CC0E947
:100940000012002070474FF0FF30704710B5203A7A
:10095000C0F00B80B1E81850203AA0E81850B1E878
:100960001850A0E81850BFF4F5AF5FEA027C24BF2E
:10097000B1E81850A0E8185044BF18C918C0BDE825
:1009800010405FEA827C24BF51F8043B40F8043BEE
:1009900008BF7047D20728BF31F8023B48BF11F8A3
:1009A000012B28BF20F8023B48BF00F8012B7047FD
:1009B0000048704784000020034640688C460028A9
:1009C00018BF88423CBF03464068F8D318681844F3
:1009D000884207D00CF1030020F00700001D411AE7
:1009E000521A0146081D0A60FFF735BC10B50446CF
:1009F00000F0EEF90068005D00F0010010BD00009D
:100A00002DE9F34F4FF0000A0C4656468DB00120F9
:100A10000C9001F10C000B9062690B98012190473A
:100A2000051E2DD0252D2CD0216A8847C0B16269C2
:100A30000B9801219047216A88470028F7D1626905
:100A4000411E0B98904700E0761CA1690D988847DD
:100A5000216A88470028F7D1E1690D988847DBE7CC
:100A6000A1690D988847A842074601D1761CD3E7B3
:100A7000E1690D9888477F1C02D1BAF1000F6FD051
:100A80006CE162690B9800273D46394690472A2859
:100A900004D162690B98012190470125DFF8D082CB
:100AA00062690B9801219047A0F130010A290AD20E
:100AB0004745E5DC07EB870100EB4107303FDFD41A
:100AC00045F01005ECE7E90601D46FF000476C280B
:100AD0000AD04C2814D0682815D06A280DD0742864
:100AE0001CD07A281AD01DE062690B98012190472A
:100AF0006C2802D045F0040514E045F002050DE035
:100B000045F020050AE062690B98012190476828AA
:100B100002D045F0080505E045F4006562690B98D0
:100B200001219047C4E9015765283DD019DC5828B8
:100B30007AD00CDC452837D004DC252826D0412883
:100B40009ED131E046282FD0472899D12CE05B2850
:100B500077D0612828D063287CD0642823D15AE03C
:100B6000F7E06F2848D008DC66281DD067281BD026
:100B7000692821D06E2816D127E0702845D0732827
:100B800068D0752847D078280DD14DE0A1690D981F
:100B90008847252805463FF469AFE1690D988847E5
:100BA0006D1C3FF46AAFD9E00D9923466A466FF099
:100BB0000100AFF30080C6E045F0400023464FF04F
:100BC00000026060A80736D43EE0E8077FF447AF34
:100BD0002068011D21600068290501D506701BE70A
:100BE000290701D5068017E7A90703D5F117C0E942
:100BF000006111E706600FE745F0400023464FF023
:100C000008026060A80716D41EE040F60E0125EA2F
:100C10000100606016E045F0400023464FF00A02F4
:100C20006060A80707D40FE045F040006060A807A7
:100C300008D5234610220D996FF00100AFF3008014
:100C400081E007E0102223460D996FF00100FFF7C5
:100C5000FBFB78E04FF0000963284F46C8464B463F
:100C6000CB4602D05B2807D039E02079C00601D4FA
:100C70000120A060012732E06269D4F80CB00B9823
:100C8000012190475E2807D14FF00109494662696A
:100C9000D4F80CB00B989047216939B900210A4665
:100CA00003AB43F82120491C0829FADBD8B321699A
:100CB00049B308F1010862690B98012190475D284A
:100CC000F4D1B9F1000F09D0002003A951F8202078
:100CD000D24341F82020401C0828F7DB03AB2069F1
:100CE000002820794FEA40701ED05B462246CDF89E
:100CF0000080CDE901970D9900286FF0010020DAFE
:100D0000AFF300801FE0C11703AA00EBD1614B11C4
:100D100021F01F0102EB8302411A13680120884071
:100D200003431360C7E719E00D99224600286FF0CE
:100D30000100009702DAAFF3008004E0AFF3008017
:100D400001E0AFF3008000280ADA401C06D10C98BD
:100D500020B14FF0FF300FB0BDE8F08F5046FAE7FA
:100D6000E90701D10AF1010A064400200C9053E67C
:100D7000CCCCCC0C10B500F041F8BDE8104000F030
:100D800038B870477546FFF713FEAE460500694652
:100D9000534620F00700854618B020B5FFF71AFA31
:100DA000BDE820404FF000064FF000074FF000086C
:100DB0004FF0000B21F00701AC46ACE8C009ACE8ED
:100DC000C009ACE8C009ACE8C0098D467047000016
:100DD00010B500F041F8001D10BD00BF5913000010
:100DE00010B50446AFF300802046BDE81040FFF781
:100DF000DCB9002801D000F029B8704710B50128EF
:100E000005D0002103A000F02BF8012010BD09A19E
:100E1000F8E7000053494752544D454D3A204F756D
:100E200074206F662068656170206D656D6F7279E2
:100E3000000000003A2048656170206D656D6F729A
:100E40007920636F727275707465640001491820AF
:100E5000ABBEFEE72600020000487047A400002059
:100E600070B505460C460A2000E06D1C00F011F834
:100E700035B128780028F8D102E0641C00F009F8A8
:100E800014B120780028F8D1BDE870400A20AFF3F3
:100E9000008008B569468DF800000320ABBE08BD90
:100EA0004FF0013C50F8042B51F8043B9A4221D1F9
:100EB000A2EB0C03934313EACC1317D150F8042B85
:100EC00051F8043B9A4215D1A2EB0C03934313EA69
:100ED000CC130BD150F8042B51F8043B9A4209D1A2
:100EE000A2EB0C03934313EACC13DBD04FF00000CA
:100EF000704700BFD01A01BAB1FA81F101F01801B0
:100F000022FA01F0CB40C1F12001DBB2C0B2C01A1D
:100F10002CFA01F3D11A914311EAC311E6D17047BB
:100F2000FEE770472DE9F84FDFF8B8910024A9F1EA
:100F3000040B23460F2709F1040AABF1040EC9E0A4
:100F40000125A5402A40AA427DD1674ED1F804C0B0
:100F5000ACEB0608B44532D014DCBCF1030F3AD038
:100F600009DCBCF1000F2AD0BCF1010F1CD0BCF190
:100F7000020F31D11DE0BCF1110F17D0BCF1120FDF
:100F80002AD119E0B8F5881F19D006DCB8F5803FE2
:100F900015D0B8F5801F1FD111E0B8F5001F0ED095
:100FA000B8F5041F18D10AE0CB6815E0CB681B1D0B
:100FB00012E0CB6808330FE0CB680C330CE08B6891
:100FC0002BB1012B4FF0080303D0456104E004234B
:100FD00002E0056100E00023FF2A01D8064601E097
:100FE00000F104064FEA840501D9A5F12005D6F8E1
:100FF000008007FA05FC28EA0C0803FA05F548EA20
:101000000508C6F800804D68ED0062D5374DAE6921
:1010100046F00106AE61AD6924F0030605F0010556
:101020000095334D06EB050CDCF80850A607360F8B
:1010300007FA06F825EA0805DFF8B880404503D12D
:101040004FF0000817E044E0DFF8AC80404502D1E3
:101050004FF001080FE0DFF8A480404502D14FF0C7
:10106000020808E0DFF89880404502D14FF00308FD
:1010700001E04FF0040808FA06F848EA0508CCF841
:1010800008804D68D9F80060ED024D4601D5164341
:1010900000E096432E604D68DAF80060AD025546D8
:1010A00001D5164300E096432E604D68DBF80060E2
:1010B000AD035D4601D5164300E096432E604D68B2
:1010C000DEF80060ED03754601D5164300E0964357
:1010D0002E60641C0D682A46E5407FF431AFBDE800
:1010E000F88F0000080401400000111000100240B9
:1010F0000000014000080140000C014000100140C8
:101100000014014001488068704700001000002072
:101110000248816802781144816070471000002005
:10112000074810B5016841F010010160032000F08C
:1011300067F80F2000F006F800F024F8002010BD3A
:101140000020024070B50D4D04464FF47A712878A6
:10115000B1FBF0F00A490968B1FBF0F000F0CEFAFB
:1011600048B9102C07D200222146501E00F028F862
:1011700000206C6070BD012070BD000010000020D8
:101180001C0000200C4808B5816941F00101816113
:10119000816901F001010091C16941F08051C16193
:1011A000C06900F0805000900448416821F0E0617F
:1011B00041F08061416008BD001002400000014024
:1011C000F0B40E4B1B680C46C3F30223C3F10705B2
:1011D000042D00D90425191D072901D2002300E0A0
:1011E000DB1E012606FA05F1491E214099409E406A
:1011F000761E16403143F0BC00F067BD0CED00E0F8
:10120000064900F0070208684FF6FF03184040EA5D
:101210000220034A10430860704700000CED00E014
:101220000000FA052DE9F0470F46050061D0434E56
:10123000306800F00700B84209D2306820F007009B
:1012400038433060306800F00700B84251D1286858
:101250003B4C810712D5400703D5606840F4E0603D
:1012600060602878000703D5606840F460506060D3
:101270006068A96820F0F000084360602878C00723
:1012800028D06868012810D02168022810D089076A
:1012900000292EDA616821F0030101436160FFF744
:1012A00031FF804641F288390DE021688903EFE77C
:1012B0008901EDE7FFF726FFA0EB0801494502D9B8
:1012C0000320BDE8F0876068696800F00C00B0EBAF
:1012D000810FEFD1306800F00700B8420BD93068B9
:1012E00020F0070038433060306800F00700B84253
:1012F00001D00120E5E72878400705D56068E96856
:1013000020F4E060084360602878000706D5606834
:10131000296920F4605040EAC100606000F038F8AC
:101320006168084AC1F30311515CC840064908606E
:1013300006480068FFF706FF0020C2E700200240D1
:1013400000100240722100081C0000201400002040
:101350000448054900684968044AC1F30221515C08
:10136000C84070471C000020001002408221000885
:101370000448054900684968044AC1F3C221515C28
:10138000C84070471C000020001002408221000865
:101390000E4A51680E4801F00C03042B11D0082BA3
:1013A0000FD10C48C1F38343C903C05C0AD551680F
:1013B000084AC1F34041921E515C054A5043B0FBBC
:1013C000F1F07047044948437047000000100240A4
:1013D00000127A006221000800093D002DE9F84F53
:1013E000040070D02078C04DC00749D06868C0F3B1
:1013F0008100012807D06868C0F38100022809D164
:101400006868C00306D52868800339D5606800285D
:10141000E7D035E06068B0F5803F0BD010B1B0F593
:10142000A02F11D0286820F480302860286820F48C
:10143000802002E0286840F480302860606890B125
:10144000FFF760FE06460AE0286840F48020286026
:10145000F0E700BFFFF756FE801B642873D82868AA
:101460008003F7D50CE0FFF74DFE064605E000BF10
:10147000FFF748FE801B6428F0D828688003F7D463
:1014800020789A4E80074FF001094FF0000839D5B7
:10149000686810F00C0F07D06868C0F3810002285C
:1014A00009D16868C00306D42868800714D520696C
:1014B000012808D110E02069B0B1C6F80090FFF70C
:1014C00021FE074605E00AE1FFF71CFEC01B0228CB
:1014D000C4D828688007F7D52868616920F0F8002B
:1014E00040EAC10028600DE0C6F80080FFF70AFE60
:1014F000074604E0FFF706FEC01B022823D8286831
:101500008007F7D4207800072CD57948A169D9B194
:10151000C0F80090FFF7F6FD074604E0FFF7F2FD84
:10152000C01B02280FD8686A8007F7D571484FF4AE
:10153000FA510068B0FBF1F0009000BF0098411E26
:101540000091FAD20EE080E0C0F80080FFF7DAFDEB
:10155000074604E0FFF7D6FDC01B022875D8686A6D
:101560008007F7D42078400760D5E8690027C000DD
:1015700008D4E86940F08050E861E869012700F08C
:10158000805000905C480168C90513D40168834607
:1015900041F480710160FFF7B5FD824606E000BFAF
:1015A000FFF7B0FDA0EB0A0064284ED8DBF800007E
:1015B000C005F5D5E06801280AD008B1052813D088
:1015C000286A20F001002862286A20F0040002E066
:1015D000286A40F001002862E06841F2883B98B137
:1015E000FFF790FD82460BE0286A40F00400286275
:1015F000EEE700BFFFF786FDA0EB0A0159455AD878
:10160000286A8007F6D50CE0FFF77CFD824605E0EE
:10161000FFF778FDA0EB0A0159454CD8286A8007EE
:10162000F6D41FB1E86920F08050E861E06988B322
:101630006968C1F38101022944D00228C6F860809C
:1016400004D0FFF75FFD044638E034E0FFF75AFDB1
:10165000074604E0FFF756FDC01B02282BD8286878
:101660008001F7D4206AB0F5803F05D16868A16891
:1016700020F4003008436860D4E908010843696831
:1016800021F4741108436860C6F86090FFF73AFDD2
:10169000044606E025E000BFFFF734FD001B0228EA
:1016A00009D828688001F7D51BE000BFFFF72AFDA5
:1016B000001B022802D90320BDE8F88F28688001AA
:1016C000F4D40EE00128F7D06868226A00F4803173
:1016D000914204D1616A00F47010884201D0012067
:1016E000EAE70020E8E70000001002400000424264
:1016F000800442421C0000200070004010B5401ED3
:10170000B0F1807F01D3012010BD4FF0E024606173
:101710000F21601700F0D9FA0020A0610720206196
:10172000002010BD70B5040004D094F841000025DD
:1017300010B106E0012070BD84F84050204600F052
:1017400023F8242084F841002068C16821F4005166
:10175000C160204600F008FA2068016921F4904138
:1017600001612068416921F02A0141612068C16856
:1017700041F40051C1606564202084F8410084F880
:1017800042006563002070BD30B585B00024009430
:1017900001940294039400681449884224D11448A7
:1017A000816941F480418161816901F48041049142
:1017B000816941F00401816180690E4D00F00400EF
:1017C00004904FF4007000900220019003200390D9
:1017D00069462846FFF7A6FB2815CDE900046946AF
:1017E00028460294FFF79EFB05B030BD003801404B
:1017F000001002400008014090F84230202B01D038
:101800000220704721B11AB10023036300F008BA27
:10181000012070472DE9F843044690F841009846AE
:1018200016460D46202802D00220BDE8F88385B177
:101830007EB100206064212084F84100FFF762FC43
:10184000A6848146E684A0682027B0F5805F02D098
:1018500003E00120E9E7206910B12E4600250EE0E3
:1018600000260CE08021204600F0F5F9A8B9C6B1A9
:1018700016F8010B21684860E08C401EE084E08C83
:101880004B464FF00002CDF800800028EAD14FF01F
:101890004001204600F0DFF940B184F84170032098
:1018A000C3E735F8020BC0F30800E3E784F84170A2
:1018B0000020BAE7FEE700002DE9F041ADF5467DD6
:1018C0008846074600F016FA040044D02069002834
:1018D00041D0006800283ED000220121022000F003
:1018E00025FC050037D40026C19602208DF805039B
:1018F0004FF4A040C296C396C496ADF80603D4E94F
:1019000003200168C2A8FEF764FE1022C1A9284680
:1019100000F0EDF900281BDB434611A24FF4807163
:1019200081A80097FEF7BEFC81A8FEF733FE0246B1
:10193000002381A9284600F0F6FB002340F2FF12A5
:1019400001A9284600F0ECFB002801DD01A90E5496
:10195000284600F0CAF90DF5467DBDE8F08100008B
:1019600047455420257320485454502F312E310DB3
:101970000A486F73743A2025730D0A436F6E6E65C3
:101980006374696F6E3A20636C6F73650D0A0D0A9C
:1019900000000000F8B5694600F0C2F900282AD01E
:1019A000012000F0A7FB060025D00022144900F01A
:1019B000AEFB0021304600F099FB002208211046C2
:1019C00000F03EFA050017D06C6808210020217055
:1019D000607060804AF6AF70A0804801E0802046C9
:1019E00000F08AF960806A462946304600F096FB8E
:1019F000284600F03FFAF8BD304600F08DFBF8BDF8
:101A00008D1E0008FEE7FEE770B5094C05466068CC
:101A100000280BD02846FEF7BDFD82B2294660683B
:101A2000BDE870404FF0FF33FFF7F4BE70BD00001B
:101A30000400002010B50E4C606000F035F8002363
:101A40000C4A0D490D4800F034FBA06058B100F07D
:101A500039FB0121A06800F01EFAA068BDE8104023
:101A6000002100F025BBBDE8104005A0FFF7CCBF6A
:101A700004000020991E0008C9200008680000200A
:101A80005050504F533A206372656174652066610F
:101A9000696C65640D0A0000014800787047000019
:101AA000040000207047000004484068002804D06B
:101AB00002490122491CFFF79FBE70470400002025
:101AC00070477047FFF724BB10B590B028216846D7
:101AD000FEF7E6FD14210AA8FEF7E2FD02200090C1
:101AE0000120049010200024059007946846FFF719
:101AF00075FC08B172B6FEE70F20CDE90A040C941C
:101B00000D9400210AA80E94FFF78CFB002801D049
:101B100072B6FEE710B010BD704701680C3151E895
:101B2000002F22F4907241E80023002BF5D10168C8
:101B3000143151E8002F22F0010241E80023002B6C
:101B4000F5D1016B012909D101680C3151E8002F51
:101B500022F0100241E80023002BF5D1202180F86B
:101B6000421000210163704770B5044600680169A6
:101B7000E26821F44051114301612169A0680843E2
:101B8000616908432168CA6841F20C639A430243C1
:101B9000CA6020684169A26921F440711143416122
:101BA0001E492068884202D1FFF7E2FB01E0FFF7FF
:101BB000CFFB00EBC00101EB0012606864218000E4
:101BC000B2FBF0F3B3FBF1F36FF018067343B2FB13
:101BD000F0F5B2FBF0F605EB8305322303EB0515B8
:101BE000B5FBF1F5B6FBF1F605F0F00505EB0615D2
:101BF000B2FBF0F6B2FBF0F0B0FBF1F06FF01802C0
:101C0000504306EB800003EB0010B0FBF1F02168BD
:101C100000F00F002844886070BD000000380140CB
:101C200081628285C28500214164222180F84210B0
:101C3000016921B10168CA6842F48072CA60016812
:101C40004A6942F001024A610068C16841F020011E
:101C5000C160002070472DE9F843984617460D46AD
:101C60000446089E24E0701C22D0FFF74BFAA0EB3C
:101C70000800B0421AD8CEB12068C168490717D50C
:101C8000802D15D0402D13D00168C94309070FD40A
:101C900001680025406800902046FFF73EFF0820BD
:101CA000606484F840500120BDE8F8830320FBE71E
:101CB0002068006835EA000004D00020B842D2D085
:101CC0000020F1E70120F9E7FEE70907090E0028E7
:101CD00004DB00F1E02080F80014704700F00F00F2
:101CE00000F1E02080F8141D7047002070474FF08D
:101CF000FF30704700207047002203E030F8023BBD
:101D0000891E1A440129F9D805D10078024402E05D
:101D100090B200EB1242100CFAD1D04380B270475F
:101D200010B586B00C4605AA04A9CDE9001203AB94
:101D300002AA0CA1FEF76AFB042802D0002006B01C
:101D400010BD029803990006C9B240EA0140049907
:101D5000C9B240EA01200599C9B2084320600120B8
:101D6000EDE7000025752E25752E25752E257500AD
:101D70000EB50068C3B2C0F30722C0F307418DE877
:101D80000E00030E03A210210548FEF78BFA04484B
:101D90000EBD000025752E25752E25752E25750086
:101DA0007400002008B5FFF7BBF9FFF78DFE194856
:101DB000816941F0040181618069174900F00400E4
:101DC000009016480C2201604FF4E131416000217F
:101DD0008160C160C0E904128161C161FFF7A2FCAA
:101DE00008B172B6FEE70D48FFF724FE0C4C012542
:101DF000FFF758FEFFF750FE0028F9D020780028A2
:101E0000F6D1257007A108A0FFF756FD0AA0FFF73D
:101E1000C1FDEDE700100240003801402000002025
:101E2000000000202F0000007777772E6261696440
:101E3000752E636F6D000000382E382E382E380056
:101E400070B50D460C20FEF7D7F904000BD02846DC
:101E5000FEF7D2F9606040B1258165812946FEF721
:101E6000FDFB00202060204670BD2046FEF7F3F900
:101E7000002070BD10B5040007D06068FEF7EBF9D4
:101E80002046BDE81040FEF7E6B910BD100001D0B5
:101E9000FFF7F0BF7047704730B52D4CA5B00D2946
:101EA0004FD2DFE801F00710383A3C3E404244464A
:101EB000484A4C000120207026A2802102A8FEF78B
:101EC000F1F902A800E028A0FFF79EFD2078002885
:101ED0001FD0A06800281CD02948016822914168C1
:101EE00023918068249024A8FFF742FF054623A889
:101EF000FFF73EFF044622A8FFF73AFF034621A260
:101F0000802102A8CDE90045FEF7CCF902A8FFF731
:101F10007BFD25B030BD20A0D6E724A0D4E729A0C2
:101F2000D2E72EA0D0E734A0CEE739A0CCE73CA082
:101F3000CAE741A0C8E745A0C6E74AA0C4E750A049
:101F4000C2E70B4655A2802102A8FEF7ABF9B8E71D
:101F5000040000205050504F533A204C494E4B2023
:101F600055500D0A000000005050504F533A205079
:101F70004152414D204552524F520D0A000000007F
:101F80006800002049503D2573204E4D3D257320AB
:101F900047573D25730D0A005050504F533A204F7C
:101FA00050454E204552524F520D0A005050504F4E
:101FB000533A20444556494345204552524F520D0D
:101FC0000A0000005050504F533A20414C4C4F43B0
:101FD000204552524F520D0A000000005050504F01
:101FE000533A205553455220444953434F4E4E4592
:101FF00043540D0A000000005050504F533A204304
:102000004F4E4E454354204552524F520D0A000048
:102010005050504F533A2041424F52540D0A000045
:102020005050504F533A2050524F544F434F4C2032
:102030004552524F520D0A005050504F533A2050C3
:1020400045455220444541440D0A00005050504F30
:10205000533A2049444C452054494D454F55540D61
:102060000A0000005050504F533A20434F4E4E4507
:1020700043542054494D454F55540D0A000000006B
:102080005050504F533A204C4F4F504241434B20F9
:1020900044455445435445440D0A00005050504FA8
:1020A000533A205354415455532025640D0A0000DF
:1020B000704710B51C460420FEF79EF8002800D09B
:1020C000046010BD70470000074810B54068144612
:1020D00030B12CB1A2B24FF0FF33FFF79BFB08B138
:1020E000002010BD204610BD04000020002800D0B4
:1020F000C160704710B504461020FEF77DF8002837
:1021000004D00021C0E900418160C16010BD0028F9
:1021100001D0C0E901127047FEF79DB8002070475A
:102120004FF0FF3070474FF0FF3070474FF0FF30F7
:102130007047000010B500290AD00878002807D0A1
:1021400005487844FEF7ACFE002801D0002010BD01
:102150000248784410BD00006A00000062000000E0
:10216000010202030405060708090A0B0C0D0E0FF5
:102170001010000000000000000001020304060728
:10218000080900000000010203040000BC2200084E
:10219000000000202000000028010008DC220008C8
:1021A00020000020C80600004401000810010000C3
:1021B00043000000F8FFFFFF004040404040404027
:1021C000404041414141414040404040404040400A
:1021D00040404040404040404005020202020202AE
:1021E00002020202020202020220202020202020FD
:1021F0002020200202020202020290909090909011
:1022000010101010101010101010101010101010CE
:102210001010101002020202020288888888888842
:10222000080808080808080808080808080808082E
:102230000808080802020202400000000000000036
:10224000000000000000000000000000000000008E
:10225000000000000000000000000000000000007E
:10226000000000000000000000000000000000006E
:10227000000000000000000000000000000000005E
:10228000000000000000000000000000000000004E
:10229000000000000000000000000000000000003E
:1022A000000000000000000000000000000000002E
:1022B000000000000000000000000000000000001E
:1022C000000000000000000000000000010000000D
:0C22D000100000000000000000127A0066
:04000005080000ED02
:00000001FF
